:020000040000fa
:080000000001040000000000f3
:020000040000fa
:100008009401000094010000940100009401000094
:100018009401000094010000940100009401000084
:1000280094010000940100009401000048120000af
:100038009401000094010000661200008412000080
:10004800940100003e1000009401000054110000cb
:100058009401000094010000940100009401000044
:100068009401000094010000940100009401000034
:100078009401000094010000940100009401000024
:100088009401000094010000940100009401000014
:100098009401000094010000940100009401000004
:1000a80094010000940100009401000094010000f4
:1000b80094010000940100009401000094010000e4
:1000c80094010000940100009401000094010000d4
:1000d80094010000940100009401000094010000c4
:1000e80094010000940100009401000094010000b4
:0800f8009401000094010000d6
:020000040000fa
:100108009401000094010000940100009401000093
:100118009401000094010000940100009401000083
:1001280094010000940100009401000048120000ae
:10013800940100009401000066120000841200007f
:10014800940100003e1000009401000054110000ca
:100158009401000094010000940100009401000043
:100168009401000094010000940100009401000033
:100178009401000094010000940100009401000023
:100188009401000094010000940100009401000013
:100198009401000094010000940100009401000003
:1001a80094010000940100009401000094010000f3
:1001b80094010000940100009401000094010000e3
:1001c80094010000940100009401000094010000d3
:1001d80094010000940100009401000094010000c3
:1001e80094010000940100009401000094010000b3
:0801f8009401000094010000d5
:020000040000fa
:10020000ef8720000eff20000e0188000000000094
:1002100000012000200288000c000700e0452200b9
:100220000100200011000700000020000000e00095
:10023000020032000000020000000000be190200af
:10024000000000000040da000000fe004440a90069
:1002500040b320000000e000030032000000200056
:10026000a00188004440a800000006009101880019
:10027000800078000000eb0015003700e2804000ad
:1002800032a0b4009101ba00e280400032a0b40074
:100290009102ba00e280400032a0b4000002eb00fc
:1002a000472bde00f507b200602ce10004003a00a5
:1002b0000059eb008301e900fdff3e000400370018
:1002c0006128e100010032000082eb000400070019
:1002d0001101ba000200e000e8ff3a000000060049
:1002e0003159ba008301e9000c0032002159ba00eb
:1002f0008301e900080032000400e00003003a0036
:10030000e280400032a0b400f5ff370011d9ba00f6
:100310008301e900faff3a008100e800e180400033
:1003200032a0b400000006000040da000000fe0029
:1003300003f0a200889fbe008a9fbe008c1f780039
:10034000170107001e0133006450e1004f00320026
:100350006420e1005200320003826c0007003b0081
:100360000905d0000306d000820f54000c065d0082
:10037000020039000200320089017800030678008b
:100380008582550004003d000003fd008103fd004f
:100390008502ea008b854200840f720002003b0058
:1003a00060001000e08018006011b8000005eb004c
:1003b0007a28e1000a00390006007800c75ddd00f8
:1003c000f707b200878075002d0037008281710029
:1003d0000a017800610560008180d1000080d300af
:1003e0008502e900f9ff3b000604400087844800cd
:1003f00002003b0060041400e0841c000988a30094
:10040000070032008a8171008281710061016400fd
:100410008904d1000884d3008b05e8001700370059
:100420000978a30013003a000b00e0001300340029
:100430008b05e9000804440089844c000a447400d8
:100440000978a3000d003a000b00e000070034001b
:100450008b05e9000804440089844c0001003a003f
:100460000b0020000978a300f7ff32000001eb0029
:1004700002003700828171000a0178008d000700b8
:100480000cf0a70001f0a000d60037006420e100c6
:1004900002003a00838f6c00d60033000801be00d2
:1004a0000200be00cf003700889fbe008a9fbe00ba
:1004b0008c1f7800ba000700c100330003866c006f
:1004c0006450e1002e0032006420e100330032006d
:1004d0006150e1002f0032006120e1003100320064
:1004e00085855500eb07b0000900200008042000b6
:1004f000050037000804440089844c000a003100dc
:100500000603430087834b000001530081815b0099
:10051000f8ff33000203be000800a00008044400f6
:1005200089844c00f6ff3900c639dd008301730071
:1005300001003200130020008904d1000884d30098
:100540000998a300050032000800a7000300a000de
:100550008904d1000884d3008b05e8008904d10008
:100560000884d3000001eb000281d2005100070093
:1005700001f0a1000cf0a70001f0a00099003700e5
:100580006420e1009b0032000801be000200be00b2
:10059000f7ff37006120e100960032006000b800ec
:1005a000f3ff37000000200001f82700f0ff3700bc
:1005b0000001be00650007000470a70003f0a10061
:1005c0006509b100160032000d0035006828e10011
:1005d00006003500f0ff2f00f1ff27000300e000c8
:1005e00013003b000100280000000500000040004f
:1005f000818048008502e900fcff3a0008003700ce
:10060000f88f420002003c008000eb000000050073
:100610008100d1000080d3008502e800fcff3a0091
:100620000300e00002003b0060001000e0801800c2
:10063000000006000001be00440007000470a7008f
:1006400003f0a10003f8a30013003a006509b1000c
:1006500010003200090035006928e1000200350071
:1006600001002800000005000000400081804800d3
:100670008502e900fcff3a0000000600f88f420006
:10068000050035008100d1000080d3008502e8001c
:10069000fcff3a00000006008000eb0000000500af
:1006a0004f89de0082017800890037006011b800b0
:1006b0009700370081002000618055000b003d004d
:1006c0000b00200061fe2f000100e1001d0034003e
:1006d00082817100610164008904d1000884d30023
:1006e0000000e800faff3a00710020006100640099
:1006f0000300700002006000090032006104440041
:10070000e0844c000988a500050032008b05e80054
:100710006808e10002003a008904d1000884d3008f
:10072000f20f20000258e10005003d00c75ddd002a
:10073000f907b20089807500080078000000060003
:100740000bf827008b00780000000500c70ade00c8
:10075000f107b200f50fb20008003200e1cf42000d
:10076000020032000170a00024000500810f70001b
:10077000010032000408050044000500810f7000ec
:1007800002003a00140005008502e9000000400064
:1007900081c04800fcff3b000170a0002400050060
:1007a0000004be00e9ff07000003be000405be0010
:1007b0000200be00e5ff0700844f75000000060040
:1007c0000200be006450e100050036006420e10034
:1007d000020036000968a30001003a000800be00cc
:1007e0000160a0004f0678004f05be004f04be0018
:1007f00000000600f0ff2f00f1ff2700f9ff37008f
:10080000889fbe008a9fbe008c1f7800e4ff07000f
:10081000ebff330003866c006450e10024003200db
:100820006420e100270032006150e1002200320024
:100830006120e100210032008b854200eb07b1000e
:100840000134b800003ab8000804420089844a0024
:10085000013ab8000030b8008880400009014a0021
:10086000040033000000400081804800020149007c
:100870008b05e900c909dd00830170000100320029
:1008800013002000c814de004814dd004709de0014
:100890001200b200c808de000884700085ff07005f
:1008a00001f0a1000cf0a70001f0a000cdff37007f
:1008b0006120e100cfff32000801be000200be004f
:1008c000f7ff37006150e100fcff3a00c9ff370035
:1008d000881f7800030478000300e00007003d0053
:1008e00060001000e080180060011900e08119002c
:1008f00002003b0001f02d00030037000400070058
:1009000008f0a70001f0a0004f04780000000600e6
:10091000889fbe008a9fbe000082700004027100a2
:1009200004827100260032000004be000200be00f6
:100930006011b8006b092000950220000182cf00f1
:100940000a0039000541b1000082cf0007003900dc
:100950000541b1000982cf00040039000541b10012
:100960000882cf00010039000541b1000542520064
:10097000120032000a003b008281710061016400b4
:100980008100d1000080d3008984d3000884d30083
:100990008b05e8000442e800f7ff3a000700370043
:1009a0000804440089844c0000004800818048000d
:1009b0008b05e9000442e900f9ff3a003dff07001a
:0c09c0004f05be004f04be000000060002
:020000040000fa
:1009cc00000000000000000000000000000000001b
:1009dc00000000000000000000000000000000000b
:1009ec00000000003eff0000ff3e00000000000081
:1009fc0000000000000d00000d00000000000000d1
:100a0c0000040000070300000004000007030000be
:100a1c0000000000000000000000000000000000ca
:100a2c0010fe0000fe10000010fe0000fe10000082
:100a3c00010f00000f010000010f00000f0100006a
:100a4c001c3e000022ff0000ff420000ce8c000084
:100a5c0003070000040f00000f0400000703000050
:100a6c000000000006c60000f03c00000e02000072
:100a7c000004000007030000000600000600000050
:100a8c001e3f0000e1c10000412100003f1e00009c
:100a9c00060f0000090900000b0c00001e160000d8
:100aac00000000000407000003000000000000002c
:100abc00000000000000000000000000000000002a
:100acc0000000000f8fe000007010000000000001c
:100adc0000000000000700000e08000000000000ed
:100aec000000000001070000fef8000000000000fc
:100afc0000000000080e00000701000000000000cc
:100b0c0020a80000f870000070f80000a820000079
:100b1c0000000000000000000000000000000000c9
:100b2c002020000020fc0000fc2000002020000001
:100b3c0000000000000100000100000000000000a7
:100b4c000000000000000000000000000000000099
:100b5c0000000000203c00001c0000000000000011
:100b6c002020000020200000202000002020000079
:100b7c000000000000000000000000000000000069
:100b8c000000000000000000000000000000000059
:100b9c0000000000000c00000c0000000000000031
:100bac000000000000c00000f03c00000f0300003b
:100bbc00000c00000f03000000000000000000000b
:100bcc00feff00000101000001010000fffe00001b
:100bdc00070f000008080000080800000f070000bd
:100bec000004000006ff0000ff00000000000000f1
:100bfc0000080000080f00000f08000008000000ab
:100c0c000203000081c10000613100001f0e0000d2
:100c1c000e0f00000908000008080000080c000076
:100c2c00020300000121000021210000ffde000072
:100c3c00040c000008080000080800000f07000062
:100c4c00e0f00000988c000086ff0000ff00000020
:100c5c000000000000000000080f00000f0800005a
:100c6c003f3f00002121000021210000e1c10000d4
:100c7c00040c000008080000080800000f07000022
:100c8c00fcfe00002321000021210000e0c0000038
:100c9c00070f000008080000080800000f070000fc
:100cac000303000001810000e17900001f07000030
:100cbc0000000000000f00000f000000000000000a
:100ccc00deff00002121000021210000ffde0000da
:100cdc00070f000008080000080800000f070000bc
:100cec001e3f00002121000021210000fffe00001a
:100cfc000008000008080000080c000007030000b2
:100d0c0000000000001800001800000000000000a7
:100d1c0000000000000600000600000000000000bb
:100d2c000000000000180000180000000000000087
:100d3c0000000000101e00000e000000000000006b
:100d4c0040e00000b01800000c060000020000009b
:100d5c000000000001030000060c00000800000069
:100d6c0000a00000a0a00000a0a00000a0000000b7
:100d7c000000000000000000000000000000000067
:100d8c0000020000060c000018b00000e04000005b
:100d9c00000800000c060000030100000000000029
:100dac000203000001c10000e13100001f0e000031
:100dbc0000000000000d00000d000000000000000d
:100dcc000203000001c10000e13100001f0e000011
:100ddc0000000000000d00000d00000000000000ed
:100dec00f8fc00008683000083860000fcf80000fd
:100dfc000f0f000000000000000000000f0f0000ab
:100e0c00ffff00002121000021210000ffde000077
:100e1c000f0f000008080000080800000f07000072
:100e2c00fcfe0000030100000101000003060000ad
:100e3c00030700000c080000080800000c06000066
:100e4c0001ff0000ff01000001030000fefc000098
:100e5c00080f00000f080000080c0000070300003a
:100e6c0001ff0000ff2100002171000003030000be
:100e7c00080f00000f080000080800000c0c000010
:100e8c0001ff0000ff21000021710000030300009e
:100e9c00080f00000f080000000000000000000018
:100eac00fcfe00000301000041410000c3c600002d
:100ebc00030700000c08000008080000070f0000e2
:100ecc00ffff00002020000020200000ffff00009a
:100edc000f0f000000000000000000000f0f0000ca
:100eec000001000001ff0000ff01000001000000f4
:100efc0000080000080f00000f08000008000000a8
:100f0c00000000000000000001ff0000ff010000d5
:100f1c00060e000008080000080f00000700000083
:100f2c0001ff0000ff700000d88c000007030000d8
:100f3c00080f00000f000000000100000f0e000061
:100f4c0001ff0000ff010000000000000000000095
:100f5c00080f00000f080000080800000c0c00002f
:100f6c00ffff00000c780000780c0000ffff000071
:100f7c000f0f000000000000000000000f0f000029
:100f8c00ffff00001c38000070e00000ffff0000b5
:100f9c000f0f000000000000000000000f0f000009
:100fac00feff00000101000001010000fffe000037
:100fbc00070f000008080000080800000f070000d9
:100fcc0001ff0000ff210000212100003f1e000056
:100fdc00080f00000f0800000000000000000000d7
:100fec00feff00000101000001010000fffe0000f7
:100ffc00070f0000080e00001c3800002f0700002f
:10100c0001ff0000ff21000021610000ff9e000095
:10101c00080f00000f080000000000000f0f000078
:10102c000e1f00003121000021610000c786000066
:10103c00060e000008080000080800000f0700005a
:10104c000303000001ff0000ff0100000303000088
:10105c0000000000080f00000f0800000000000056
:10106c00ffff00000000000000000000ffff000078
:10107c00070f000008080000080800000f07000018
:10108c00ffff00000000000000000000ffff000058
:10109c0001030000060c00000c0600000301000018
:1010ac00ffff000000e00000e0000000ffff000078
:1010bc00010f00000e030000030e00000f010000e2
:1010cc00070f000098f00000f09800000f070000d8
:1010dc000e0f000001000000000100000f0e0000c8
:1010ec000f1f000030e00000e03000001f0f000078
:1010fc0000000000080f00000f08000000000000b6
:10110c0003830000c1610000311900000f070000cb
:10111c000f0f000008080000080800000c0c00006d
:10112c0000000000ffff00000101000000000000b3
:10113c00000000000f0f0000080800000000000075
:10114c0055aa000055aa000055aa000055aa000097
:10115c0055aa000055aa000055aa000055aa000087
:10116c000000000001010000ffff00000000000073
:10117c0000000000080800000f0f00000000000035
:10118c00080c000006030000030600000c08000019
:10119c000000000000000000000000000000000043
:1011ac000000000000000000000000000000000033
:1011bc0010100000101000001010000010100000a3
:1011cc0000000000080f00000700000000000000f5
:1011dc000000000000000000000000000000000003
:1011ec00009000009090000090f00000e0000000e3
:1011fc00070f000008080000080700000f08000097
:10120c0001ff0000ff10000010300000e0c00000e3
:10121c00080f000007080000080800000f07000076
:10122c00e0f0000010100000101000003020000052
:10123c00070f000008080000080800000c0400005c
:10124c00c0e000003010000011ff0000ff000000a3
:10125c00070f000008080000080700000f08000036
:10126c00e0f000009090000090900000f0e0000092
:10127c00070f000008080000080800000c0400001c
:10128c0000100000feff000011110000030200001e
:10129c00000800000f0f0000080000000000000014
:1012ac00e0f000001010000010e00000f010000052
:1012bc00276f000048480000487f00003f000000f6
:1012cc0001ff0000ff20000010100000f0e0000003
:1012dc00080f00000f000000000000000f0f0000be
:1012ec000010000010f60000f600000000000000e6
:1012fc0000080000080f00000f08000008000000a4
:10130c000000000010100000f6f6000000000000c5
:10131c0030600000404000007f3f000000000000f3
:10132c0001ff0000ffc00000c06000003010000092
:10133c00080f00000f000000010300000e0c00005d
:10134c000001000001ff0000ff0000000000000091
:10135c0000080000080f00000f0800000800000043
:10136c00f0f0000030e00000e0300000f0e00000a1
:10137c000f0f000000070000070000000f0f000017
:10138c0010f00000e010000010100000f0e0000071
:10139c00000f00000f000000000000000f0f000005
:1013ac00e0f000001010000010100000f0e0000051
:1013bc00070f000008080000080800000f070000d5
:1013cc0010f00000e010000010100000f0e0000031
:1013dc00407f00007f480000080800000f07000055
:1013ec00e0f000001010000010e00000f010000011
:1013fc00070f000008080000487f00007f40000035
:10140c0010f00000e0100000101000003020000070
:10141c00000f00000f0000000000000000000000a2
:10142c0060f0000090900000901000003020000050
:10143c00040c000008080000090900000f06000059
:10144c0010100000feff0000101000000000000053
:10145c0000000000070f0000080c00000400000052
:10146c00f0f000000000000000f00000f0000000b0
:10147c00070f000008080000080700000f08000014
:10148c00f0f000000000000000000000f0f0000090
:10149c0001030000060c00000c0600000301000014
:1014ac00f0f000000080000080000000f0f0000070
:1014bc00070f00000c070000070c00000f070000ce
:1014cc001030000060c00000c06000003010000050
:1014dc00080c000006030000030600000c080000c6
:1014ec00f0f000000000000000000000f0f0000030
:1014fc00474f000048480000486800003f1f0000ac
:10150c003030000010900000d0700000301000004f
:10151c000c0e00000b090000080800000c0c000069
:10152c00000000000000000000000000005f000050
:10153c00000000000007000000070000001400007d
:10154c007f1400007f140000242a00007f2a000072
:10155c0012230000130800006462000036490000ea
:10156c0055220000500000000503000000000000a0
:10157c00001c00002241000000000000412200007d
:10158c001c000000082a00001c2a000008080000ab
:10159c00083e000008080000005000003000000069
:1015ac0000080000080800000808000000300000d7
:1015bc0030000000002000001008000004020000b1
:1015cc003e510000494500003e000000427f0000f3
:1015dc00400000004261000051490000462100001b
:1015ec00414500004b31000018140000127f000030
:1015fc001027000045450000453900003c4a00001a
:10160c004949000030010000710900000503000089
:10161c0036490000494900003606000049490000df
:10162c00291e0000003600003600000000000000fb
:10163c0056360000000000000008000014220000d4
:10164c004114000014140000141400004122000086
:10165c0014080000000200000151000009060000ff
:10166c0032490000794100003e7e0000111100005b
:10167c00117e00007f49000049490000363e000001
:10168c0041410000412200007f4100004122000046
:10169c001c7f000049490000494100007f090000ff
:1016ac0009010000013e00004141000051320000e0
:1016bc007f080000080800007f000000417f000048
:1016cc004100000020400000413f0000017f00006d
:1016dc0008140000224100007f4000004040000040
:1016ec00407f000002040000027f00007f04000025
:1016fc00081000007f3e000041410000413e000008
:10170c007f09000009090000063e0000415100005d
:10171c00215e00007f0900001929000046460000e8
:10172c004949000049310000010100007f0100001f
:10173c00013f000040400000403f00001f2000001f
:10174c00402000001f7f000020180000207f0000b8
:10175c006314000008140000630300000478000008
:10176c0004030000615100004945000043000000e3
:10177c00007f00004141000002040000081000003e
:10178c0020410000417f0000000000000402000026
:10179c0001020000044000004040000040400000f6
:1017ac00000100000204000000200000545400005e
:1017bc00547800007f480000444400003838000092
:1017cc004444000044200000384400004448000019
:1017dc007f3800005454000054180000087e0000ac
:1017ec00090100000208000014540000543c0000e1
:1017fc007f0800000404000078000000447d000015
:10180c004000000020400000443d000000000000ab
:10181c007f10000028440000004100007f400000c1
:10182c00007c000004180000047800007c08000014
:10183c0004040000783800004444000044380000e0
:10184c007c1400001414000008080000141400009c
:10185c00187c00007c08000004040000084800000c
:10186c005454000054200000043f00004440000089
:10187c00203c000040400000207c00001c200000a8
:10188c00402000001c3c000040300000403c0000a8
:10189c004428000010280000440c000050500000a8
:1018ac00503c000044640000544c00004400000014
:1018bc000836000041000000000000007f0000001e
:1018cc00000000004136000008000000080800007d
:1018dc002a1c0000080800001c2a00000808000050
:1018ec0000000000000000000000000000000000ec
:1018fc0000000000000000000000000000000000dc
:10190c0000000000000000000000000000000000cb
:10191c0000000000000000000000000000000000bb
:101d2c0080010000060e0000ed0100008d0c00008b
:101d3c00506100006c610000206a0000652000000a
:101d4c006e6f0000632c00002073000076650000ad
:101d5c00746c00006f20000075200000737400008c
:101d6c00616b00006c6500006e6900006b75000013
:101d7c00207300006520000075700000616c00008d
:101d8c00696c00006f00000053760000616e00006b
:101d9c00756f0000206a000065200000646100007f
:101dac006e2c00002073000076650000746c00003f
:101dbc006f2000007520000073740000616b000040
:101dcc006c6500006e6900006b75000020730000ec
:101ddc00652000007567000061730000696c0000ed
:101dec006f000000212000002120000021200000b5
:101dfc00546500006d700000657200006174000095
:101e0c0075720000612000007520000073740000e2
:101e1c00616b00006c6500006e6900006b75000062
:101e2c00206a0000652000007665000063610000f8
:101e3c00206f0000642000006b72000069740000c9
:101e4c00696300006e650000202100002021000065
:101e5c002021000000210000202100002021000092
:101e6c002044000065740000656b0000746f000076
:101e7c00766100006e6f0000206a00006520000093
:101e8c006e650000737400006f2000007520000068
:101e9c0073740000616b00006c6500006e690000db
:101eac006b75000020210000202100002021000083
:101ebc00005500006e650000736900007465000039
:101ecc00207300006966000072750000004f00006e
:101edc00747600006f720000656e00006f000000e9
:101eec005a610000747600006f720000656e00008d
:101efc006f000000506f00006772000065730000f7
:101f0c006e610000206b00006f6d0000616e0000c0
:101f1c0064610000005400000074000000330000f5
:101f2c0035000000323500000031000035000000a3
:101f3c00504f00004441000043490000202d000098
:101f4c003e0000004d4100004b530000494d000085
:101f5c00554d0000004d0000494e0000494d000059
:101f6c00554d000000500000524f0000534500003a
:101f7c004b0000004e4100005a410000442000007c
:101f8c002d3e0000004d0000616b000073690000e5
:101f9c006d6100006c6e000061200000543a00007e
:101fac0000200000200000004d6900006e69000058
:101fbc006d6100006c6e000061200000543a00005e
:101fcc0020000000507200006f7300006563000079
:101fdc006e610000205400003a2000002000000038
:101fec002d3e00004752000041460000494b0000c6
:101ffc0000540000726500006e750000746e0000e5
:10200c0061200000746500006d70000065720000b6
:10201c006174000075720000612000006a650000a8
:08202c003a2000000000000052
:020000040000fa
:102034000000fa00cda2a900cdc2a9000080fa00d8
:10204400000006000000fa0054012000a4108800db
:102054000d42a9008d20a80075108000c4ff2f0038
:1020640004826200741088000de2a8000f42a800e8
:102074000080fa0000000600801f7800849fbe00e4
:10208400869fbe003400f80000002000a0018800f4
:102094000000fa008520a900941080000442780012
:1020a4000440780002e8b7007542800024802000d4
:1020b400144278000483fb0085824200448020009f
:1020c40004824200060a78007542800024802000c1
:1020d400144278000483fb0027812000058242001b
:1020e40004824300060a7800744280000402e80077
:1020f4007442880014002000644288000080fa00c2
:102104003400f9004f03be004f02be004f007800b8
:10211400004006000200fa00000f780000000000f2
:10212400751080000410200004826200e00f520049
:10213400fbff32006410800066026200e60f52006a
:1021440003003a001e027800841088000300370060
:10215400f40f20001e026200841088000080fa0040
:10216400000006000000fa00881f780000047800d0
:1021740005003700184278000402fb0004007800d0
:10218400e4ff07000804e80018427800e04f52001a
:10219400f8ff3a004f0478000080fa0000000600bf
:1021a4000400fa00100798009e029000843e20006c
:1021b400110009008482d80000027800044f7800de
:1021c4009e4278000582fb000403b00004007800fe
:1021d400d0ff07001e4078008082fb0084c12f00de
:1021e40004aab900040278009e029000048242000e
:1021f400140798009e029000440620001100090074
:102204008482d80000027800044f78009e4278004f
:102214000582fb000403b00004007800bdff070042
:102224001e4078008082fb00c4f92f0004aab90084
:10223400040278009e029000048242001407980071
:102244009e029000a4002000110009008482d8009e
:1022540000027800044f78009e4278000582fb005b
:102264000403b00004007800aaff07001e407800b1
:102274008082fb0064ff2f0004aab90004027800e6
:102284009e02900004824200140798001e029000ef
:102294000403b000040078009eff07000080fa00e9
:1022a40000000600841f78003400f80004002000b9
:1022b400a40188000000fa0004148000d4408800bf
:1022c40014148000e440880024148000f440880042
:1022d40034148000044188004414800014418800b0
:1022e400d440800024418800e440800034418800c8
:1022f400f4408000444188008560a9000080fa0011
:102304003400f9004f027800004006000400fa008f
:10231400100798000002eb00040f7800010037005a
:102324001e0fe8001e0290009e027800848f520067
:10233400fbff39000080fa00000006000000fa00ec
:10234400889fbe00cfa2a800cfc2a900d1a2a80036
:10235400d1c2a900401f2000ecff070024418000e7
:1023640074418800d1a2a900d1c2a800cfa2a900bb
:10237400cfc2a800401f2000e4ff070034418000c2
:102384008441880075418000b47484000482520042
:10239400050020000400be00c3f807000004be00ce
:1023a400c5748400b47484000482520005002000c3
:1023b4000400be00bcf807000002be000401be0019
:1023c4000800be0037f807000002be00020020002b
:1023d400033024000400be0008f907000002be0018
:1023e4000400be0092f807000002be000402780058
:1023f4005441880085418000d474840004825200d2
:10240400050020000400be00a7f807000004be0079
:10241400e5748400d4748400048252000500200012
:102424000400be00a0f807000002be000401be00c4
:102434000800be001bf807000002be0002002000d6
:10244400032824000400be00ecf807000002be00cc
:102454000401be000000200001282400b3f7070097
:102464000002be000400be0050f807000002be00d7
:102474000402780004f0a7000402ea006441880022
:102484004f04be000080fa0000000600841f78009c
:102494003400f80004002000a40188000000fa00c1
:1024a4000002eb0004088800844280000402e80073
:1024b400844288008460a9000080fa003400f90096
:1024c4004f02780000400600841f78003400f800b2
:1024d40004002000a40188000000fa000002eb00c0
:1024e40034088800944180000402e8009441880084
:1024f40084c0a9000080fa003400f9004f0278007b
:1025040000400600841f78003400f8000400200016
:10251400a40188000000fa000002eb0054088800bf
:10252400a44180000402e800a441880084e0a900da
:102534000080fa003400f9004f02780000400600e1
:102544000200fa00000f78000002eb0084428800c9
:10255400000000009e02780084428000848f5200b4
:10256400fcff3e000080fa00000006000200fa00b2
:10257400000f78000002eb00944188000000000086
:102584009e02780094418000848f5200fcff3e003c
:102594000080fa00000006000200fa00000f780034
:1025a4000002eb00a4418800000000009e027800b5
:1025b400a4418000848f5200fcff3e000080fa009a
:1025c400000006000000fa0015418000f47c2000a1
:1025d400848f52000b003e0094428000e10f5200b1
:1025e40016003a00e0e92800defe0700cae2a8006f
:1025f400d0002000c7fe07000002eb0094428800d0
:102604000e00370015418000047d2000848f5200a5
:102614000a00360094428000e00f520007003a009e
:10262400a0ec2800cffe0700cae2a900d0002000d9
:10263400b8fe070014002000944288000080fa00cd
:10264400000006000000fa00f540800074bb200082
:10265400848f520003003e0014002000a44288002e
:102664000d003700f540800074bb2000848f5200b9
:1026740009003600a4428000e10f520006003a002f
:1026840080ef2800b7fe0700d0002000a1fe07005d
:102694000002eb00a44288000080fa00000006005b
:1026a4000000fa000002eb00b44188000a00370081
:1026b400c562a800a0002000b7ff0700c562a900fa
:1026c40070012000b4ff0700c562a800b441800077
:1026d4000402e800b4418800b541800074bb2000c6
:1026e400848f5200f2ff34000080fa0000000600dc
:1026f4000000fa0005418000441f2000848f52002e
:102704000a003600b4428000e00f520007003a008d
:1027140010f3280093fe0700d00020007dfe070080
:1027240013e1a800deff070013e1a9000080fa000e
:10273400000006000200fa00000f78000002eb001f
:10274400b44188000d003700cac2a8001e027800f8
:102754000400780085ff0700cac2a90045012000d3
:102764001e8252000400780080ff0700cac2a8003d
:10277400b44180000402e800b4418800b5418000ff
:1027840074022000848f5200efff34000080fa00ae
:10279400000006000000fa0024002000c441880064
:1027a400c441800004007800e2ff07000080fa00c2
:1027b400000006000000fa0014002000c441880054
:1027c400c441800004007800daff07000080fa00aa
:1027d400000006000000fa000002eb00d44188006b
:1027e40009003700d4418000840242004480200064
:1027f4000482420005032000050a7800d4418000c9
:102804000402e800d4418800d4418000e50f52005e
:10281400f4ff34000002eb00d441880009003700c3
:10282400d441800025812000040242000482420039
:1028340005032000050a7800d44180000402e80062
:10284400d4418800d4418000e30f5200f4ff3400e7
:102854000002eb00744288000002eb00644288002e
:102864000080fa00000006000000fa002540800005
:10287400f4042000848f520021003a003540800087
:1028840044052000848f52001d003a00454080001a
:1028940064052000848f520019003a0055408000de
:1028a400f4042000848f520015003a006540800033
:1028b40024052000848f520011003a0075408000e6
:1028c40094042000848f52000d003a00b44280002a
:1028d400e00f52000a003a00f0f5280021fe07003c
:1028e400d00020000bfe0700baff070014002000f0
:1028f400b44288000002eb00644288005a003700aa
:10290400248120009402780044032000848f520024
:102914001f003a0024812000940290003403200018
:10292400848f52001a003a0024812000a4029000ef
:1029340024032000848f520015003a0024812000d3
:10294400b402900014032000848f520010003a0057
:10295400b4428000e10f52000d003a00d0f6280086
:1029640000fe0700d0002000eafd070011e1a800e6
:1029740088ff070011e1a90096ff0700240020004a
:10298400b44288000002eb0064428800360037003d
:1029940025408000a4052000848f520028003a00be
:1029a4003540800014042000848f520024003a0033
:1029b4004540800044052000848f520020003a00e6
:1029c4005540800064052000848f52001c003a00aa
:1029d40065408000f4042000848f520018003a00ff
:1029e4007540800024052000848f520014003a00b2
:1029f4008540800094042000848f520010003a0027
:102a0400b4428000e20f52000d003a0060f7280043
:102a1400d4fd0700d0002000befd070011e1a8008e
:102a240064ff070011e1a9006aff07000002eb0040
:102a3400b44288000002eb00644288000a003700b8
:102a440064428000e10f520007003a0000f82800b9
:102a5400c4fd0700d0002000aefd07005dff0700a5
:102a64000002eb00644288000002eb00e4418800ad
:102a74000d0037000002eb00f4418800030037002a
:102a8400f44180000402e800f4418800f54180002c
:102a940034062000848f5200f9ff3600e4418000a0
:102aa4000402e800e4418800e54180003406200087
:102ab400848f5200efff36000080fa000000060009
:102ac4000400fa00100798009e029000843e200043
:102ad400110009008482d80000027800044f7800b5
:102ae40005c3b3001ec2420004407800c5050700b8
:102af4001e4078008082fb0084c12f0004aab90024
:102b0400040278009e029000048242001407980098
:102b14009e02900044062000110009008482d8001f
:102b240000027800044f780005c3b3001ec24200bf
:102b340004407800b30507001e4078008082fb0043
:102b4400c4f92f0004aab900040278009e02900080
:102b540004824200140798009e029000a400200002
:102b6400110009008482d80000027800044f780024
:102b740005c3b3001ec2420004407800a10507004b
:102b84001e4078008082fb0064ff2f0004aab90075
:102b9400040278009e029000048242001407980008
:102ba4001e029000044278000443b0000440780000
:102bb400940507000080fa00000006000400fa00f3
:102bc400c4332000040f78000002eb0004428800a4
:102bd4000f003700044280008402420084852000f4
:102be40004824200140278009e0f52000500340053
:102bf4000442800084024200848520000482420052
:102c0400140f7800044280000402e80004428800a3
:102c140004428000ec0f5200eeff340045cc2f003c
:102c24001e824200cfa2de000400be009bf6070015
:102c34000003be0094438000a54380000401be004d
:102c44000600be0017f607000002be0002002000c6
:102c5400031724000400be00b5f507000002be00ff
:102c64000400be0051f607000002be0014079800dd
:102c74001e029000040078000080fa0000000600a4
:102c84000400fa00a4f42000040f78000002eb0012
:102c9400044288000f00370004428000840242008e
:102ca4008485200004824200140278009e0f5200a2
:102cb40005003d0004428000840242008485200017
:102cc40004824200140f7800044280000402e800e9
:102cd4000442880004428000ec0f5200eeff3400ee
:102ce40045cc2f001e824200cfa2de000400be00ad
:102cf4006af607000003be0094438000a5438000e9
:102d04000401be000600be00e6f507000002be0096
:102d140002002000031724000400be0084f507000d
:102d24000002be000400be0020f607000002be0040
:102d3400140798001e029000040078000080fa0036
:102d4400000006000600fa000002eb00040f780001
:102d54000002eb00044288000900370004428000ae
:102d64008402420084852000048242001402780018
:102d74001e0f4200044280000402e800044288005e
:102d840004428000ec0f5200f4ff34009e027800ed
:102d9400d4002000110009008402d8000002780049
:102da400140798001e029000c433b100cfa2de00c5
:102db4000400be0039f607000003be0094438000ff
:102dc400a54380000401be000600be00b5f507005f
:102dd4000002be0002002000031724000400be000d
:102de40053f507000002be000400be00eff5070023
:102df4000002be00240798002e0290000400780010
:102e04000080fa00000006000000fa000002eb0057
:102e1400144288000e0037001442800015428000de
:102e24008502e80005834200858520008502430071
:102e340095027800040342008485200004024300c4
:102e4400050a7800144280000402e8001442880055
:102e540014428000eb0f5200efff34004441800025
:102e6400844388000080fa00000006000000fa0095
:102e740032fd070054418000e80f52001000360074
:102e84006541800044032000848f52000c0036000a
:102e94005541800054042000848f520008003e00f5
:102ea40065418000c4032000848f520004003e006a
:102eb40014002000b443880014002000c443880098
:102ec4008542800004352c00848f52006300360054
:102ed400360307008040eb0050c0b300ad0207008a
:102ee40010f928008a05070061c0b30080c7b30049
:102ef400a802070030f928008505070011c0b300b7
:102f040010c0b300a302070050f928008005070091
:102f140031c0b30010c0b3009e02070080f928003e
:102f24007b05070051c0b30010c0b300990207002d
:102f3400b0f928007605070071c0b300c0c0b30023
:102f440094020700e0f9280071050700aeff0700ae
:102f54000002eb00244288003b003700054080005b
:102f640004022000110009008402d8000002780045
:102f7400cfa2de000400be00c8f507000002be00b8
:102f84004442880055428800244280008402420062
:102f9400848520000482420014027800c433b10006
:102fa400cfa2de000400be00bcf507000003be0093
:102fb40044428000554280000401be000600be0069
:102fc40038f507000002be000401be000000200026
:102fd400c1222400d5f407000002be000400be0094
:102fe40072f507000002be00040278003442880033
:102ff400244280006302420004427800350020002d
:103004000522dd000443e800344280008442780055
:10301400244280000482e800044278003700200043
:103024000722dd0004c2e800c3c2b30006417800f1
:103034008540780004407800390407002442800069
:103044000402e8002442880024428000ec0f52006d
:10305400c2ff34000002eb00844288000080fa00c2
:10306400000006000000fa00c4438000e10f520093
:103074002b003a00cd02070043c1b300c2c3b30022
:1030840041c0b30080c0b30025040700c3c2b3002d
:10309400c2c3b300c1c1b30080c0b30020040700a1
:1030a40043c1b30082c7b30041c0b30040c4b300fe
:1030b4001b040700c3c2b30082c7b300c1c1b3007d
:1030c40040c4b3001604070011c0b300b0c0b3007d
:1030d4003002070080fa28000d05070041c0b30044
:1030e400d0c0b3002b02070010fb2800080507001e
:1030f40011c0b300b0c4b3002602070090fb28003f
:103104000305070041c0b30080c4b30021020700d7
:1031140000fc2800fe0407000002eb00c443880002
:1031240086fc070071c0b30040c0b3001902070059
:1031340054418000e80f52001b00360064418000b7
:10314400e40f52001800360055418000740320003b
:10315400848f520014003e0064418000f30f52003b
:1031640011003e0071c0b30040c0b3000902070063
:1031740090fc2800e604070071c0b30040c6b30009
:10318400040207008dfe07000002780004007800a6
:103194004bfe070071c0b30040c6b300fd01070039
:1031a40070fd2800da04070054418000e80f520043
:1031b4001c00360064418000fc0f520019003600e8
:1031c4005541800074032000848f520015003e0096
:1031d40065418000b4022000848f520011003e003b
:1031e40071c0b30040c0b300ea010700a0fd28008d
:1031f400c704070071c0b30040c6b300e50107006f
:103204009ffe070000027800040078002cfe0700ef
:1032140071c0b30040c6b300de01070070fd280092
:10322400bb0407005541800084042000848f5200b1
:103234001b00360064418000e40f52001800360081
:103244005541800074072000848f520014003e0012
:1032540064418000f30f520011003e0071c0b300be
:1032640040c0b300cb01070080fe2800a80407007b
:1032740071c0b30040c6b300c6010700b1fe070029
:1032840000027800040078000dfe070071c0b3004e
:1032940040c6b300bf01070070fd28009c0407006e
:1032a4005541800084042000848f520012003600af
:1032b40064418000fc0f52000f003600554180002d
:1032c40074072000848f52000b003e00654180008b
:1032d400b4022000848f520007003e002400200026
:1032e400b443880041c0b30080c4b300a9010700ff
:1032f40060ff2800860407000080fa000000060032
:103304000000fa004007200082fb0700844380008d
:1033140004007800a2fb07000002eb0014428800be
:103324000c0037001442800084024200848520008f
:1033340004824200140278000400780098fb07001d
:1033440070fd280087fb0700144280000402e80097
:103354001442880014428000ec0f5200f1ff340044
:10336400d00020006bfb07000071220074fc0700f2
:103374000080fa00000006000400fa00e4c0200007
:103384000440880014002000040f7800f2040700b1
:10339400a1e2a8002bfb070028050700320507005f
:1033a4003b050700b300070021fb0700c30107002a
:1033b400fe010700e1040700c782a800a982a90052
:1033c400c6e2a900a8e2a800c742a800a942a90031
:1033d400c762a800a962a900c162a900c6c2a90067
:1033e400a8c2a800dec2a800030037000000000045
:1033f4000100370000000000b4438000e10f5200d8
:1034040002003a0017ff070004003700b4438000ad
:10341400e20f520001003a0094fe070069fc070025
:1034240088fc070010fd0700b1fc070005178000a9
:103434000404200004826200e00f520024003200e1
:103444001e027800e00f5200210032008443800005
:10345400c433b100cfa2de000400be008ff4070025
:103464000003be0094438000a54380000401be0015
:103474000600be000bf407000002be00020020009c
:10348400031724000400be00a9f307000002be00d5
:103494000400be0045f407000002be0014079800b3
:1034a400f0ff28002ffb07001e02900004007800a4
:1034b4003bfb0700d000200016fb07000002eb00d6
:1034c400040f78000002eb00a441880013e1a80077
:1034d4001e027800e00f5200c4ff3a00a5418000ac
:1034e40004532700848f5200c2ff360014002000ca
:1034f400040f78000002eb00a441880013e1a90046
:10350400bdff37000200fa00004f78001e42780029
:10351400e04f52000500320015178000040220001d
:103524000482720014178800040037001517800005
:10353400f4fd2f0004826200141788000080fa0052
:10354400000006000200fa00004f78001e427800d6
:10355400e04f520004003200141780000440a00021
:10356400141788000400370015178000f4fe2f009c
:1035740004826200141788000080fa00000006002c
:103584000200fa00004f78001e427800e04f52001b
:1035940004003200141780000410a00014178800df
:1035a4000400370015178000d4ff2f000482620046
:1035b400141788000080fa00000006000200fa00d8
:1035c400004f78001e427800e04f520004003200a1
:1035d400141780000400a0001417880004003700aa
:1035e40015178000e4ff2f0004826200141788007e
:1035f4000080fa00000006000200fa00004f780084
:103604001e427800e04f520005003200551680003b
:10361400040220000482720054168800040037005b
:1036240055168000f4fd2f000482620054168800b1
:103634000080fa00000006000200fa00004f780043
:103644001e427800e04f52000400320054168000fd
:103654000440a0005416880004003700551680006a
:10366400f4fe2f0004826200541688000080fa00e1
:10367400000006000000fa00dea2a900de82a90014
:10368400de22a900de02a900a8a2a800c6a2a90001
:10369400a882a800c682a900a802a800c602a900a0
:1036a400a822a800c622a900a842a800c642a900d0
:1036b400a862a800c662a900d202a900d222a90069
:1036c400d242a900d262a9000080fa0000000600dc
:1036d4000200fa00004f78001e427800e04f5200ca
:1036e40008003a00d202a900d222a900d242a900bd
:1036f400d262a900c662a900c642a900c622a900d6
:10370400c602a9001e427800e14f520008003a00a8
:10371400d202a800d222a800d242a800d262a800f5
:10372400c662a800c642a800c622a800c602a80015
:103734000080fa00000006000400fa002047980008
:103744002e429000044f7800b516800004ff2f002d
:1037540004826200b41688005516800004ff2f000e
:1037640004826200541688009e4278006fc2620090
:10377400144798001e4290008482fb005416800077
:1037840004827200541688009e4278000582fb0071
:103794004422de00044f78001e4278008482fb003d
:1037a400b416800004827200b41688000080fa0007
:1037b400000006000200fa00a4168000044f7800fe
:1037c4001e427800450020000522dd00044f7800e9
:1037d40044168000144798001e4290006f42620015
:1037e400144798001e4290001e424200144798005d
:1037f4001e429000044078000080fa000000060099
:103804000000fa0010c0b3004eff07000040eb00b8
:103814004cff07000080fa00000006000200fa00d6
:10382400004f78000040eb0064ff07000040eb000d
:1038340053ff07001e407800bfff0700f0ff07009a
:103844000080fa00000006000400fa001007980047
:103854000002eb00040f7800010037001e0fe8009f
:103864001e0290009e027800848f5200fbff3900f4
:103874000080fa00000006000200fa000040eb009d
:103884004eff070010c0b3003dff070010c0b30097
:103894008fff070010c0b3002aff0700c5ff070011
:1038a40000427800044f78000040eb0025ff070039
:1038b40003003700bfff070000427800044f780080
:1038c4001e427800e04f5200faff35000080fa00f3
:1038d400000006000200fa00004f7800f4c3b300b1
:1038e4009e42780084cf52000a003e0010c0b3000c
:1038f4003900070004c4b3001e427200044078007b
:10390400c6ff070014c0b300044078007ce8b70089
:103914000f0037001e427800e04f52000c003500c3
:103924000040eb002c00070004ccb3001e42420010
:103934008442780004c4b30004c2720004407800d6
:10394400b6ff07000042eb00044078007ce8b700b3
:103954001e4078007ae8b7000080fa0000000600f4
:103964000200fa00004f78001e427800e74f520030
:1039740006003e0084cbb3001e427200044078006f
:10398400a6ff07001e4078007be8b7000080fa001d
:10399400000006000200fa00004f7800114798006a
:1039a4001e407800cbff07001e409000ecff07008c
:1039b4000080fa00000006000200fa00004f7800c0
:1039c40004ccb3001e4272000440780093ff070049
:1039d4000080fa00000006000200fa00004f7800a0
:1039e4000040eb00f5fe07001e427800e04f520055
:1039f4000c003a000040eb00e1fe070010c0b300e9
:103a04000dff07000040eb00fbfe0700f0c3b3000e
:103a140082ff07000042eb00044078007ce8b70016
:103a24000b0037000040eb00d5fe07000040eb0020
:103a340001ff070010c0b300effe0700f0c3b3009e
:103a440076ff070014c0b300044078007ce8b70098
:103a54000080fa00000006000200fa0010c0b30063
:103a64001bff070010c0b300d4fe070010c0b30052
:103a7400c3fe070062ff070010c0b300b1fe0700d9
:103a84004cff070000427800044f78000040eb0030
:103a9400acfe07000040eb000dff07000040eb0008
:103aa400c6fe07000040eb00b5fe07001e4278008a
:103ab400044078000080fa00000006000000fa00cc
:103ac4000040eb001cff07000040eb00bbfe0700ba
:103ad4000040eb00aafe07000040eb0099fe07003f
:103ae4000040eb00d4fe07000040eb00c2fe0700dc
:103af40010c0b30083fe0700a000200052ff07009f
:103b04000040eb007ffe0700a00020004eff0700ee
:103b140010c0b3007bfe070010c0b300aeff070067
:103b2400e0c3b3003dff070000ccb3003bff070038
:103b340080cbb30039ff070000c4b30037ff070090
:103b4400f0c3b30035ff07000040eb00a2ff0700fd
:103b5400e0c3b30031ff070000ccb3002fff070020
:103b640080cbb3002dff070000c4b3002bff070078
:103b7400f0c3b30029ff07000080fa00000006002c
:103b84000200fa00004f780010c0b3008bfe07005b
:103b94000040eb007afe07001e407800e6fe0700b6
:103ba40017ff07000080fa00000006000200fa0078
:103bb4000042eb00144798001d0037009e4090001f
:103bc4000040eb0073ff07000042eb00044f780055
:103bd400030037000040eb00e9ff07001e4fe80038
:103be400f4c3b3009e42780084cf5200f9ff36003c
:103bf4009e40900000c4b30066ff07000042eb0043
:103c0400044f7800030037000040eb00dcff07009e
:103c14001e4fe800f4c3b3009e42780084cf5200e4
:103c2400f9ff36001e4290000442e8001447980051
:103c34001e429000e74f5200e0ff36000080fa0079
:103c4400000006000200fa000042eb00144798004e
:103c54001d0037009e4090000040eb004dff070020
:103c64000042eb00044f78000300370000c0eb0073
:103c7400c3ff07001e4fe800f4c3b3009e42780060
:103c840084cf5200f9ff36009e40900000c4b30078
:103c940040ff07000042eb00044f780003003700a8
:103ca40000c0eb00b6ff07001e4fe800f4c3b300ea
:103cb4009e42780084cf5200f9ff36001e429000e5
:103cc4000442e800144798001e429000e74f520057
:103cd400e0ff36000080fa00000006000400fa004d
:103ce400100798000042eb0014479800300037009a
:103cf4009e4090000040eb0026ff07000042eb00ce
:103d0400044f78000c0037001e4290000482fb0030
:103d1400c722dd001e4378000682fb0004824200b5
:103d24009e0290000482420014427800044078000d
:103d340093ff07001e4fe800f4c3b3009e427800cf
:103d440084cf5200f0ff36009e40900000c4b300c0
:103d540010ff07000042eb00044f78000d0037000d
:103d64001e4290000482fb00c722dd001e4378003f
:103d74000682fb00048242000404b0009e0290000c
:103d84000482420014427800044078007cff07005b
:103d94001e4fe800f4c3b3009e42780084cf520063
:103da400efff36001e4290000442e80014479800da
:103db4001e429000e74f5200cdff36000080fa000b
:103dc400000006000400fa002047980031479800dc
:103dd4000042eb00044f78003e4290000482fb0056
:103de4004322de0004427800844078002e40900094
:103df400e8fe070018ff070000427800044f78002f
:103e04003e4290000482fb004322de00044278001c
:103e1400844078002e409000defe07003e42900071
:103e24000482fb006702620015002000042add0002
:103e3400844278001e42780004c272000440780074
:103e44004fff07000080fa00000006000400fa009b
:103e540020479800314798000042eb00044f780057
:103e64003e4290000482fb004322de0004427800bc
:103e7400844078002e409000c6fe0700f6fe07003e
:103e840000427800044f78003e4290000482fb0018
:103e94004322de0004427800844078002e409000e3
:103ea400bcfe07003e4290000482fb0067026200f1
:103eb40015002000042add000442780084c2ea00d0
:103ec4001e42780004c26200044078002cff070000
:103ed4000080fa00000006000c00fa00004f980071
:103ee400114f9800224f98000002eb00040f780055
:103ef4000002eb00140798000002eb00240798006e
:103f04009e4a90000e4a900004c2520064479800f2
:103f14002e4a90000482fb00140798002e4a900059
:103f24008482fb00e4ff2f0004aab9000402780095
:103f3400630f4200740037001e0290008442780030
:103f44001e4a900084c242002e029000044378006e
:103f54000e4a9000044243008540780004407800f3
:103f640098ff07001e029000044278009e4a9000c9
:103f740084c252002e029000044378000e4a90003e
:103f84000442430085407800044078008dff070018
:103f94001e029000844278001e4a900084c24200af
:103fa4002e029000044278000e4b9000044253000d
:103fb400854078000440780082ff07001e029000cc
:103fc400044278009e4a900084c252002e0290005f
:103fd400044278000e4b9000044253008540780060
:103fe4000440780077ff07002e0290008442780096
:103ff4001e4a900084c242001e02900004437800ce
:104004001e4a9000044343006e4290000442530051
:1040140085407800044078006aff07002e02900073
:10402400044278009e4a900084c252001e0290000e
:10403400044378001e4a9000044343006e429000fb
:104044000442530085407800044078005dff070077
:104054002e029000844278001e4a900084c24200de
:104064001e029000044278001e4b9000044353004b
:104074006e4290000442530085407800044078006a
:1040840050ff07002e029000044278009e4a9000e0
:1040940084c252001e029000044278001e4b90001d
:1040a400044353006e42900004425300854078005c
:1040b4000440780043ff07001e027800e00f52001e
:1040c40005003d002e0290004222dd0066024200ff
:1040d4001e0f420009003700ae0290001e0290003d
:1040e400048252004222dd006a0242001e0f420096
:1040f4001e0290000402e900140798002e029000aa
:104104000402e80024079800ae0290001e0290000a
:10411400848f520088ff34000080fa0000000600fb
:104124000600fa002047980031479800424798005b
:10413400534798000042eb00044f78000042eb0024
:10414400044f78000b0037002e4290001e424200bc
:10415400be409000044078001aff07002e429000f1
:104164001e424200de4090000440780015ff070024
:104174001e4fe8001e4278008482fb004e429000ed
:104184000483fb002e4290000482fb0004025300cf
:104194000402e800848f5200ebff35000042eb007c
:1041a400044f78000b0037003e4290001e4242004c
:1041b400844078002e40900002ff07003e429000a9
:1041c4001e424200844078004e409000fdfe0700ed
:1041d4001e4fe8001e4278008482fb005e4290007d
:1041e4000483fb003e4290000482fb00040253005f
:1041f4000402e800848f5200ebff35000080fa00cf
:10420400000006000400fa0020479800a48720005c
:10421400144278000482fb00e5024200f407200007
:10422400848f52000f003400b487200014427800b9
:104234000442e800044078007be8b700b48720001b
:1042440014427800e74f5200030036000042eb00ae
:10425400044078007be8b7000042eb00044078009b
:104264007ae8b700b587200095427800a48720003b
:10427400144278008540780004407800c5fd0700aa
:104284000042eb00044f78001a0037002e429000e1
:104294000402fb006522b9000402780005f62f0031
:1042a400848242001e4378000682fb00048242009e
:1042b40065a9280065427a000440780030fe0700b2
:1042c400a4872000144278000442e80004407800e7
:1042d4007ae8b700b587200095427800a4872000cb
:1042e400144278008540780004407800a9fd070056
:1042f4001e4fe8001e427800e44f5200e3ff3600f0
:104304000040eb001efe0700a48720001442780042
:104314000442e800044078007ae8b7000080fa001c
:10432400000006000400fa0020479800a48720003b
:10433400144278000482fb00e8024200f4072000e3
:10434400848f520014003400b48720001442780093
:104354000442e800044078007be8b700b4872000fa
:10436400144278000442e800044078007be8b70077
:10437400b487200014427800e74f5200030036004f
:104384000042eb00044078007be8b7000042eb00f9
:10439400044078007ae8b7000042eb00044f78004c
:1043a40056003700b587200095427800a487200086
:1043b40014427800854078000440780075fd0700b9
:1043c4002e4290000402fb000402b100c422dd006e
:1043d4001e4378000682fb0004824200654e2800da
:1043e40065427a0004407800e5fd0700b4872000a8
:1043f400144278000442e8008442780084cbb3007d
:1044040004c272000440780004fd0700a587200060
:1044140095427800f4c3b30084cf52000c003e00f0
:1044240010c0b3006cfd0700a587200095427800fa
:1044340004c4b30004c2720004407800f7fc07000f
:1044440014c0b300044078007ce8b70012003700c1
:10445400a487200014427800e04f52000e0035007b
:104464000040eb005cfd0700a58720009542780022
:1044740004ccb30004c242008442780004c4b300f4
:1044840004c2720004407800e4fc07000042eb0020
:10449400044078007ce8b7002e4290000402fb0040
:1044a4000402b100c422dd001e4378000682fb0032
:1044b4000482420068024200654e280065427a0088
:1044c40004407800aefd0700a48720001442780061
:1044d4000442e800044078007ae8b700b587200079
:1044e40095427800a4872000144278008540780023
:1044f4000440780027fd07001e4fe8001e427800a4
:10450400e74f5200a7ff36000080fa0000000600c3
:104514000200fa00000f7800050037001e02780040
:10452400144278000440780036ff07001e0fe800ac
:104534001e02780014427800e04f5200f7ff3a0060
:104544000080fa00000006000600fa0040479800c8
:104554004e4290000482fb00cfa2de000400be00a5
:104564004ef007000002be006266260063fa2300d4
:104574000400be00cbef07000002be000400be0032
:104584002bf007000002be00244798000042eb0015
:10459400044f7800140037002e429000144798000e
:1045a400070037009e4090001e40780005fe07007b
:1045b4009e4290002e42900004c24200144798008c
:1045c4001e4290008482fb002e4290000482fb0075
:1045d4000604200004025300848f5200f1ff3500ca
:1045e4001e427800634f4200e4c7b3009e42780045
:1045f40084cf5200e8ff36004e42900004cfe90019
:104604000f0037000042eb00144798000600370003
:104614009e4090001e407800eafd07001e42900074
:1046240004c2e800144798009e429000e4c3b3001b
:1046340084cf5200f6ff36004e4290001e4f4200d7
:10464400b4c7b3009e42780084cf5200edff360019
:104654000080fa00000006000600fa0020479800d7
:104664003147980042479800534798000042eb00b6
:10467400044f78000042eb00044f78000b00370031
:104684002e4290001e424200be409000044078003a
:10469400eefd07002e4290001e424200de409000d4
:1046a40004407800e9fd07001e4fe8001e42780030
:1046b4008482fb004e4290000483fb002e42900053
:1046c4000482fb00040253000402e800848f5200b9
:1046d400ebff35000042eb00044f78000b0037007d
:1046e4003e4290001e424200844078002e409000da
:1046f400d6fd07003e4290001e42420084407800ee
:104704004e409000d1fd07001e4fe8001e42780085
:104714008482fb005e4290000483fb003e429000d2
:104724000482fb00040253000402e800848f520058
:10473400ebff35000080fa00000006000000fa00dc
:10474400a902a900a922a900c702a800c722a8009b
:104754000080fa00000006000000fa00a1a2a900ef
:10476400041580000480a1000490a10004158800b1
:10477400041580000450a0000460a0000470a00090
:1047840004158800a022a8001415800004d0a000fd
:1047940004e0a00004f0a00014158800a342a800bf
:1047a400141580000420a1000430a1000440a000de
:1047b4000450a10014158800a222a900a202a90095
:1047c4002515800004f0210004827200241588005d
:1047d400a4e2a8002515800004fc2f0004826200d6
:1047e400f401b30024158800a782a900a682a900b9
:1047f400341580000400a1000410a1000420a100cd
:104804000430a10034158800341580000480a10010
:104814000490a10004a0a10004b0a10034158800f4
:1048240004f0210054158800a042a8008560a80067
:104834008d60a8000080fa00000006000000fa0065
:104844000002eb0004088800d41420001408880037
:104854001021a9008460a9008c60a80005e1a800cb
:104864000080fa00000006000000fa000002eb00dd
:104874003408880054d02000640888001021a9005e
:1048840084c0a9008cc0a8000080fa0000000600c3
:104894000000fa000002eb00540888001402200013
:1048a400740888001221a90084e0a9008ce0a80003
:0848b4000080fa00000006007c
:020000040000fa
:1048bc007a08000004000000020000000000000064
:1048cc0000000000000800004c0000000000000088
:1048dc004c0800002e000000020000000000000048
:1048ec000051c30000000000000000003c033c002d
:1048fc00033c03003c033c00033c03003c033c0032
:10490c00033c03003c033c00033c03003c0300005d
:10491c00001a43000200010000000000000000002b
:020000040000fa
:0200000401f009
:04000000f5bf000048
:020000040000fa
:0200000401f009
:04000400ff7f00007a
:020000040000fa
:0200000401f009
:04001400ffff0000ea
:00000001FF
